:100000000C945D000C9485000C9485000C94850084
:100010000C9485000C9485000C9485000C9485004C
:100020000C9485000C9485000C9485000C9485003C
:100030000C9485000C9485000C9485000C9485002C
:100040000C942F060C9485000C949F060C94790652
:100050000C9485000C9485000C9485000C9485000C
:100060000C94D1060C9485000000000024002700A9
:100070002A0000000000250028002B0004040404CE
:100080000404040402020202020203030303030342
:10009000010204081020408001020408102001021F
:1000A00004081020000000080002010000030407FB
:1000B0000000000000000000F00711241FBECFEF79
:1000C000D8E0DEBFCDBF11E0A0E0B1E0EAEFF5E19E
:1000D00002C005900D92AE3DB107D9F723E0AEED19
:1000E000B1E001C01D92AB36B207E1F710E0CDE5FB
:1000F000D0E004C02197FE010E94F50ACC35D1075B
:10010000C9F70E9437080C94FB0A0C94000090E099
:10011000FC01EC55FF4F2491FC01E057FF4F349157
:10012000FC01E458FF4FE491EE23C9F0222339F09B
:10013000233001F1A8F4213019F1223029F1F0E047
:10014000EE0FFF1FEE58FF4FA591B4918FB7F894B3
:10015000EC91611126C030953E233C938FBF0895EA
:100160002730A9F02830C9F0243049F78091800069
:100170008F7D03C0809180008F7780938000DFCFD8
:1001800084B58F7784BDDBCF84B58F7DFBCF809125
:10019000B0008F778093B000D2CF8091B0008F7D78
:1001A000F9CF3E2BDACF3FB7F8948091410290917E
:1001B0004202A0914302B091440226B5A89B05C01B
:1001C0002F3F19F00196A11DB11D3FBFBA2FA92FD6
:1001D000982F8827BC01CD01620F711D811D911DD3
:1001E00042E0660F771F881F991F4A95D1F708953F
:1001F0008F929F92AF92BF92CF92DF92EF92FF9237
:100200004B015C010E94D3006B017C010E94D30072
:100210006C197D098E099F09683E7340810591051F
:10022000A8F321E0821A9108A108B10888EEC80E4F
:1002300083E0D81EE11CF11C81149104A104B104D7
:1002400029F7FF90EF90DF90CF90BF90AF909F90F5
:100250008F9008958091270290912602891B990B17
:10026000089508950895AF92BF92CF92DF92EF92D2
:10027000FF920F931F93CF93DF936C017B018B0150
:10028000040F151FEB015E01AE18BF08C017D107A0
:1002900059F06991D601ED91FC910190F081E02D2A
:1002A000C6010995892B79F7C501DF91CF911F917F
:1002B0000F91FF90EF90DF90CF90BF90AF90089597
:1002C000FC01538D448D252F30E0842F90E0821B5C
:1002D000930B541710F0CF96089501970895FC01E1
:1002E000918D828D981761F0A28DAE0FBF2FB11D39
:1002F0005D968C91928D9F5F9F73928F90E0089591
:100300008FEF9FEF0895FC01918D828D981731F04A
:10031000828DE80FF11D858D90E008958FEF9FEF9E
:100320000895FC01918D228D892F90E0805C9F4F74
:10033000821B91098F739927089585EB92E00E94A3
:10034000910121E0892B09F420E0822F089580E0BB
:1003500090E0892B29F00E949D0181110C940000EE
:100360000895FC01A48DA80FB92FB11DA35ABF4F4A
:100370002C91848D90E001968F739927848FA689A4
:10038000B7892C93A089B1898C91837080648C93F8
:10039000938D848D981306C00288F389E02D8081A7
:1003A0008F7D80830895EF92FF920F931F93CF93D9
:1003B000DF93EC0181E0888F9B8D8C8D98131AC0A0
:1003C000E889F989808185FF15C09FB7F894EE8987
:1003D000FF896083E889F9898081837080648083E4
:1003E0009FBF81E090E0DF91CF911F910F91FF902F
:1003F000EF900895F62E0B8D10E00F5F1F4F0F73D7
:100400001127E02E8C8D8E110CC00FB607FCFACF91
:10041000E889F989808185FFF5CFCE010E94B1017D
:10042000F1CFEB8DEC0FFD2FF11DE35AFF4FF08262
:100430009FB7F8940B8FEA89FB8980818062CFCFC8
:10044000CF93DF93EC01888D8823B9F0AA89BB890B
:10045000E889F9898C9185FD03C0808186FD0DC0F6
:100460000FB607FCF7CF8C9185FFF2CF808185FF17
:10047000EDCFCE010E94B101E9CFDF91CF91089578
:1004800008952091FF01260F3327331F21323105B4
:10049000ECF420918B02FC0190E080E0243069F0C4
:1004A00082E00895A091FF012191AC0141525E4F7D
:1004B000A40FB52FB11D2C930196861798F3809148
:1004C000FF01680F6093FF0180E0089581E00895C7
:1004D00010928B0281E080938A021092650261E0A3
:1004E00082E10E94870061E083E10E948700E9EBDE
:1004F000F0E080818E7F808380818D7F808388E49F
:100500008093B80085E48093BC000895CF93DF9377
:1005100091E09093DE018823B9F0C091B800D091AA
:10052000BA008091BC008A7B8093BC0060E082E1CD
:100530000E94870060E083E10E9487000E946802B9
:10054000D093BA00C093B800DF91CF9108958F92F5
:100550009F92AF92BF92CF92DF92EF92FF920F9352
:100560001F93CF93DF93D091B402D13208F0D7C05C
:10057000182FC091B3020E94D3006B017C018091BF
:100580008B0281116BC082E080938B0210938A02F0
:100590008FEF8093890210928802D0938702A3E99B
:1005A000B2E0E7E6F2E080E0D81391C01092660274
:1005B00080916602CC0FC82BC093660280916502C1
:1005C000813009F088C0109265020E94D3006B014F
:1005D0007C01809166028093BB0080918D02909196
:1005E0008E02A0918F02B0919002892B8A2B8B2BC7
:1005F000A1F00E94D30000918D0210918E022091F3
:100600008F02309190026C197D098E099F0906179F
:1006100017072807390708F442C08091BC0083FD02
:10062000D8CF85EC8093BC000E94D3006B017C0185
:1006300080918B02823009F450C0809189028F3FF3
:1006400009F46FC080918902803209F46CC08091F6
:100650008902803309F469C084E026C080918D024C
:1006600090918E02A0918F02B0919002892B8A2BDB
:100670008B2B09F484CF0E94D30080908D02909040
:100680008E02A0908F02B09090026C197D098E09A5
:100690009F0986169706A806B90608F070CF8091C4
:1006A0008C020E94860285E0109292021092B4029F
:1006B00010929102DF91CF911F910F91FF90EF90D7
:1006C000DF90CF90BF90AF909F908F9008959D91B5
:1006D00091938F5F69CF85EEA5CF80918D02909128
:1006E0008E02A0918F02B0919002892B8A2B8B2BC6
:1006F00009F49ECF0E94D30000918D0210918E02CA
:1007000020918F02309190026C197D098E099F090A
:10071000061717072807390708F08ACFC0CF81E0EE
:10072000C3CF80E0C1CF82E0BFCF83E0BDCF1F93B6
:10073000CF93DF93162FCEE5D3E0AB85BC859C81AC
:1007400021E0209391029093B302109292021092B2
:10075000B402ED91FC9111970190F081E02D682F8A
:10076000CD0109958B859C85DC01ED91FC91019073
:10077000F081E02D612F099581E0DF91CF911F91EC
:100780000C94A702CF93DF93D82FC62F80916203DA
:100790006FEF803369F486E00E9497036D2F87E046
:1007A0000E9497036C2F88E0DF91CF910C94970300
:1007B00084E00E9497036D2F83E00E9497036C2FC3
:1007C00082E0F2CF0F931F93CF93DF938C01EB0165
:1007D000DC011B968D919C9121E0209391022EE3E8
:1007E0002093B302109292021092B402DC01ED91B8
:1007F000FC910190F081E02D68810995F8018385D5
:100800009485DC01ED91FC910190F081E02D6981EE
:10081000099581E0DF91CF911F910F910C94A70270
:10082000CF93DF9300D0CDB7DEB790E899838A836A
:10083000BE016F5F7F4F8EE593E00E94E2030F9051
:100840000F90DF91CF910895CF93DF9300D0CDB774
:10085000DEB720E429836A83BE016F5F7F4F0E9469
:10086000E20381E090E00F900F90DF91CF91089527
:10087000CF92DF92EF92FF920F931F93CF93DF936C
:10088000D82FC62F613208F098C00E94D3006B01A8
:100890007C0180918B0281116BC081E080938B027F
:1008A00080938A029FEF90938902109288029C0F96
:1008B000909387028093660280916602DD0FD82BA9
:1008C000D093660280916502813009F078C0109261
:1008D00065020E94D3006B017C01809166028093C7
:1008E000BB0080918D0290918E02A0918F02B091F9
:1008F0009002892B8A2B8B2BA1F00E94D3000091B0
:100900008D0210918E0220918F02309190026C190D
:100910007D098E099F09061717072807390708F46C
:1009200048C08091BC0083FDD8CF85EC8093BC008B
:100930000E94D3006B017C0180918B02813009F40D
:1009400040C0809188028C1710F4C0918802E7E6BD
:10095000F2E0A5E4B2E080E08C1355C08C2FDF916B
:10096000CF911F910F91FF90EF90DF90CF9008955E
:1009700080918D0290918E02A0918F02B091900291
:10098000892B8A2B8B2B09F484CF0E94D3000091F2
:100990008D0210918E0220918F02309190026C197D
:1009A0007D098E099F09061717072807390708F0E0
:1009B00070CF80918C020E948602C0E0CFCF85EE7E
:1009C000B5CF80918D0290918E02A0918F02B0914F
:1009D0009002892B8A2B8B2B09F4AECF0E94D30077
:1009E00000918D0210918E0220918F023091900221
:1009F0006C197D098E099F09061717072807390703
:100A000008F09ACFD6CF91919D938F5FA5CF08958F
:100A1000E091260280912702E81730F4F0E0EB5BCA
:100A2000FD4F808190E008958FEF9FEF08959091A2
:100A30002602809127022FEF3FEF981748F4E92F05
:100A4000F0E0EB5BFD4F208130E09F5F909326024A
:100A5000C9010895CF92DF92EF92FF920F931F93F7
:100A6000CF93DF937C01CB018A0120919102222355
:100A700089F0EB016B01C40ED51ECC15DD0569F0C4
:100A80006991D701ED91FC910190F081E02DC701B2
:100A90000995F3CF642F0E944102C801DF91CF91E5
:100AA0001F910F91FF90EF90DF90CF900895CF931B
:100AB000DF931F92CDB7DEB7698320919102222385
:100AC000F9F02091B402203258F021E030E0FC012E
:100AD0003383228390E080E00F90DF91CF910895DF
:100AE00080919202E82FF0E0ED56FD4F99819083BE
:100AF0008F5F809392028093B40281E090E0ECCF0C
:100B000061E0CE0101960E944102F7CF90E080E0C3
:100B10000895FB0101900020E9F73197AF01461BD2
:100B2000570BDC01ED91FC910280F381E02D0994DB
:100B30008F929F92AF92BF92EF92FF920F931F936B
:100B4000CF93DF93CDB7DEB7A1970FB6F894DEBF92
:100B50000FBECDBF7C01FA01CB0119A2223008F4EF
:100B60002AE08E010F5D1F4F822E912CB12CA12CFB
:100B7000BF01A50194010E94D30AF901CA016A309C
:100B80000CF5605DD8016E938D01232B242B252B52
:100B900079F790E080E0109721F0BD01C7010E9435
:100BA0008905A1960FB6F894DEBF0FBECDBFDF91C9
:100BB000CF911F910F91FF90EF90BF90AF909F90BA
:100BC0008F900895695CDECFCF93DF93BC0185EBF6
:100BD00092E00E948905EC0160E371E085EB92E010
:100BE0000E9489058C0F9D1FDF91CF91089585ED9F
:100BF0008093BC0080918D0290918E02A0918F0213
:100C0000B09190020796A11DB11D23E0B695A7955E
:100C1000979587952A95D1F72091BC0024FD03C0B4
:100C200010928B02089540918D0250918E02609136
:100C30008F0270919002452B462B472B69F300974A
:100C4000A105B10541F02AE22A95F1F700C001970C
:100C5000A109B109E1CF80918C020C9486021F9208
:100C60000F920FB60F9211242F933F938F939F9360
:100C7000AF93BF9380913D0290913E02A0913F02BD
:100C8000B091400230913C0223E0230F2D3758F5FC
:100C90000196A11DB11D20933C0280933D029093CB
:100CA0003E02A0933F02B093400280914102909196
:100CB0004202A0914302B09144020196A11DB11DD0
:100CC0008093410290934202A0934302B093440266
:100CD000BF91AF919F918F913F912F910F900FBE38
:100CE0000F901F90189526E8230F0296A11DB11DA5
:100CF000D2CF1F920F920FB60F9211242F933F93D2
:100D00004F935F936F937F938F939F93AF93BF9313
:100D1000EF93FF9385EB92E00E94B101FF91EF9179
:100D2000BF91AF919F918F917F916F915F914F9103
:100D30003F912F910F900FBE0F901F9018951F920B
:100D40000F920FB60F9211242F938F939F93EF93CF
:100D5000FF93E091C502F091C6028081E091CB0241
:100D6000F091CC0282FD1BC090818091CE028F5FFA
:100D70008F732091CF02821741F0E091CE02F0E014
:100D8000EB54FD4F958F8093CE02FF91EF919F9191
:100D90008F912F910F900FBE0F901F90189580810B
:100DA000F4CF1F920F920FB60F9211242F933F93FF
:100DB0004F935F936F937F938F939F93AF93BF9363
:100DC000EF93FF938091B900887F803609F44AC081
:100DD000F0F5883209F4A7C018F5803109F49BC0FA
:100DE000B8F4882309F4F9C0883009F494C0FF915D
:100DF000EF91BF91AF919F918F917F916F915F9193
:100E00004F913F912F910F900FBE0F901F9018950B
:100E1000883109F488C0803251F78093890214C068
:100E2000803409F49DC040F48033B9F38833F9F677
:100E30008093890285ECB0C0803509F485C088357F
:100E400009F496C0883499F60E94F705D0CF883906
:100E500009F48CC038F5883729F050F4883611F041
:100E6000803729F683E080938B021092210257C0CD
:100E7000883809F47BC0803919F0803809F0B7CF81
:100E800080912102803208F071C0E091210281E05E
:100E90008E0F809321028091BB00F0E0EF5FFD4F49
:100EA00080833DC0803B39F0E0F4803A09F479C09A
:100EB000883A09F09CCF84E080938B021092000264
:100EC0001092FF01E0912202F09123020995809196
:100ED000FF0181110FC081E08093FF011092DF01BB
:100EE00009C0803C09F4A6CF883C09F4A3CF883B15
:100EF00009F07DCFE091000281E08E0F8093000227
:100F0000F0E0E152FE4F80818093BB00909100029F
:100F10008091FF0129C0809166028093BB0085EC1F
:100F20008093BC0064CF90918802809187029817CB
:100F300058F5E091880281E08E0F80938802F0E0FE
:100F4000E959FD4F8081E9CFE091880281E08E0F61
:100F5000809388028091BB00F0E0E959FD4F8083C7
:100F600090918802809187029817C8F285E8D8CFBF
:100F7000E091880281E08E0F809388028091BB000F
:100F8000F0E0E959FD4F808380918A0281115CCFA6
:100F900081E08093650284EA8093BC0010928B020A
:100FA00026CF85EC8093BC0010928B0280912102A9
:100FB000803230F4E0912102F0E0EF5FFD4F1082CB
:100FC0006091210270E0E0912402F091250281E01D
:100FD00092E00995109221020ACF1092890234CF33
:100FE000E5EBF2E01382128288EE93E0A0E0B0E03D
:100FF00084839583A683B78324E031E03183208303
:1010000025EC30E03587248724EC30E037872687CD
:1010100020EC30E0318B208B21EC30E0338B228BC5
:1010200022EC30E0358B248B26EC30E0378B268B9E
:10103000118E128E138E148EE2E5F3E0138212826B
:1010400084839583A683B78386E191E0918380832F
:10105000EEE5F3E01382128288E291E091838083CF
:101060001582168217821086118612860895CF93F4
:10107000DF9300D000D0CDB7DEB7789484B582601E
:1010800084BD84B5816084BD85B5826085BD85B52C
:10109000816085BD80916E00816080936E001092AA
:1010A0008100809181008260809381008091810025
:1010B00081608093810080918000816080938000B6
:1010C0008091B10084608093B1008091B000816014
:1010D0008093B00080917A00846080937A00809140
:1010E0007A00826080937A0080917A008160809398
:1010F0007A0080917A00806880937A001092C10013
:1011000082E593E090936A0380936903109226022C
:1011100010922702109292021092B4020E9468026A
:1011200081E391E0909323028093220282E391E095
:10113000909325028093240280916303982F9860F6
:101140009093630312E01093670310926803EBE33C
:10115000FDE03197F1F788620E9410048BE496E479
:101160000197F1F78091630380620E94100483E588
:1011700092E00197F1F78091630380620E9410046E
:101180008091630380620E94100484E08093640372
:101190008CE00E94100481E00E9410048BE39FE128
:1011A0000197F1F71093650386E00E94100481E037
:1011B0008093910210E31093B30210929202109266
:1011C000B4020E94A702811189C11093620367E0F3
:1011D0000E9497038BE193E00197F1F765E184E0CA
:1011E0000E9497036FEF8FEF0E94C20360E080E0E0
:1011F0000E94C203E8E9F0E02491E4E8F0E0849181
:10120000882399F090E0880F991FFC01E859FF4F5F
:10121000A591B491FC01EE58FF4F859194918FB741
:10122000F894EC91E22BEC938FBFE091C502F09122
:10123000C60282E08083E091C102F091C202108276
:10124000E091C302F091C4028FEC80831092CD0232
:10125000E091C902F091CA0286E08083E091C70262
:10126000F091C802808180618083E091C702F09193
:10127000C802808188608083E091C702F091C80233
:10128000808180688083E091C702F091C8028081EC
:101290008F7D8083109292021092B4020E946802A5
:1012A00081E391E0909323028093220282E391E014
:1012B00090932502809324022CE3A22E22E0B22EEA
:1012C000412C512C320143944BE3842E4FE1942E58
:1012D000E4E3F2E088E011928A95E9F768E087E7B5
:1012E0000E94380410922602809327028830F1F77A
:1012F00094E3292E92E0392E710182E593E00E9459
:101300001705F70181937F01AE16BF06B1F76AE0BA
:1013100070E080E090E00E94F800E8E2F2E08CE00B
:1013200011928A95E9F76CE088E70E9438041092E0
:101330002602809327028C30F1F7E8E2F2E0FC838A
:10134000EB838F0182E593E00E941705F8018193FA
:101350008F01F2E004331F07A9F76AE070E080E034
:1013600090E00E94F80083E391E00E94E40504E32A
:1013700012E0D12CC12CF80141918F0150E070E0B6
:1013800060E02AE085EB92E00E9498056BE471E052
:1013900085EB92E00E948905F801319780818A3FB0
:1013A00018F0FFEFCF1ADF0A88E0C816D10461F405
:1013B0006DE471E085EB92E00E94890564E571E0DF
:1013C00085EB92E00E948905E016F106A1F681E521
:1013D00091E00E94E40581E591E00E94E40589E541
:1013E00091E00E94E40508E212E0F12CE12CF80102
:1013F00041918F0150E070E060E02AE085EB92E0DF
:101400000E9498056BE471E085EB92E00E948905EB
:10141000F801319780818A3F18F0FFEFEF1AFF0A39
:101420008CE0E816F10461F46DE471E085EB92E084
:101430000E94890564E571E085EB92E00E948905D0
:1014400092E00433190799F681E591E00E94E405E2
:1014500081E591E00E94E40540E050E0BA0190E0AF
:1014600080E0F10121911F01253680F001E010E0BC
:10147000082E02C0000F111F0A94E2F7012E000C83
:10148000220B330B402B512B622B732B0196883090
:10149000910539F788E090E0EB81FC812191FC8394
:1014A000EB83253670F093018201082E04C0000FF3
:1014B000111F221F331F0A94D2F7402B512B622B8E
:1014C000732B01968431910539F700E040FF14C079
:1014D0000F5F7695679557954795F8CF82E680938D
:1014E000620360E080E00E9497036FEF88E00E9453
:1014F000970360E281E074CE63E771E085EB92E0F0
:101500000E948905F5E00F9F800111246801012EDA
:10151000000CEE08FF082AE0B701A60185EB92E077
:101520000E94980582E891E00E94E40582E591E03E
:101530000E94E40585E891E00E94E40581E00E94B4
:101540001004C4010197F1F76FEB71E08EE593E0B1
:101550000E94890580E8898380EC8A83BE016F5FE1
:101560007F4F8EE593E00E94E2032AE0B701A601D7
:101570008EE593E00E9498050A3011057CF061E049
:1015800088E00E9487008EEC91E00E94E40564EF01
:1015900071E080E090E00E94F8009ACE60E088E080
:1015A0000E948700F4CFA1E21A2EAA1BBB1BFD01EB
:1015B0000DC0AA1FBB1FEE1FFF1FA217B307E40732
:1015C000F50720F0A21BB30BE40BF50B661F771F8A
:1015D000881F991F1A9469F760957095809590956A
:1015E0009B01AC01BD01CF010895EE0FFF1F0590D7
:0A15F000F491E02D0994F894FFCF68
:1015FA0000000000D30133016001200291016F0154
:10160A0083010000000057052A05860507052A01FF
:10161A00170508050000000024043301860540026E
:10162A000D0A006C6F7720382073656374696F6EDA
:10163A00732076616C7565203D20002E00202020E5
:10164A0020202000504153530068696768203132D6
:10165A002073656374696F6E732076616C7565209B
:10166A003D20007761746572206C6576656C203D5B
:10167A0020002520002A2A2A2A2A2A2A2A2A2A2A2D
:10168A002A2A2A2A2A2A2A2A2A2A2A2A2A2A2A2AB0
:10169A002A2A2A2A2A2A2A2A2A2A2A2A2A2A2A2AA0
:1016AA002A2A2A2A2A2A2A2A2A2A2A2A2A2A004E96
:1016BA006976656175206427656175203A00506F07
:0E16CA006D706520616C6C756DC3A9202100E8
:00000001FF
